{
  "contractName": "DeliverySystem",
  "abi": [
    {
      "anonymous": false,
      "inputs": [
        {
          "indexed": false,
          "internalType": "uint256",
          "name": "orderId",
          "type": "uint256"
        }
      ],
      "name": "FoodDelivered",
      "type": "event"
    },
    {
      "anonymous": false,
      "inputs": [
        {
          "indexed": false,
          "internalType": "uint256",
          "name": "orderId",
          "type": "uint256"
        }
      ],
      "name": "FoodPickedUp",
      "type": "event"
    },
    {
      "anonymous": false,
      "inputs": [
        {
          "indexed": false,
          "internalType": "uint256",
          "name": "orderId",
          "type": "uint256"
        },
        {
          "indexed": false,
          "internalType": "address",
          "name": "customer",
          "type": "address"
        },
        {
          "indexed": false,
          "internalType": "address",
          "name": "restaurant",
          "type": "address"
        },
        {
          "indexed": false,
          "internalType": "address",
          "name": "deliveryPerson",
          "type": "address"
        },
        {
          "indexed": false,
          "internalType": "uint256",
          "name": "restaurantAmount",
          "type": "uint256"
        },
        {
          "indexed": false,
          "internalType": "uint256",
          "name": "deliveryAmount",
          "type": "uint256"
        }
      ],
      "name": "OrderCreated",
      "type": "event"
    },
    {
      "constant": true,
      "inputs": [],
      "name": "orderCount",
      "outputs": [
        {
          "internalType": "uint256",
          "name": "",
          "type": "uint256"
        }
      ],
      "payable": false,
      "stateMutability": "view",
      "type": "function"
    },
    {
      "constant": true,
      "inputs": [
        {
          "internalType": "uint256",
          "name": "",
          "type": "uint256"
        }
      ],
      "name": "orders",
      "outputs": [
        {
          "internalType": "address",
          "name": "customer",
          "type": "address"
        },
        {
          "internalType": "address",
          "name": "restaurant",
          "type": "address"
        },
        {
          "internalType": "address",
          "name": "deliveryPerson",
          "type": "address"
        },
        {
          "internalType": "uint256",
          "name": "restaurantAmount",
          "type": "uint256"
        },
        {
          "internalType": "uint256",
          "name": "deliveryAmount",
          "type": "uint256"
        },
        {
          "internalType": "bool",
          "name": "foodPickedUp",
          "type": "bool"
        },
        {
          "internalType": "bool",
          "name": "foodDelivered",
          "type": "bool"
        }
      ],
      "payable": false,
      "stateMutability": "view",
      "type": "function"
    },
    {
      "constant": false,
      "inputs": [
        {
          "internalType": "address",
          "name": "_restaurant",
          "type": "address"
        },
        {
          "internalType": "address",
          "name": "_deliveryPerson",
          "type": "address"
        },
        {
          "internalType": "uint256",
          "name": "_restaurantAmount",
          "type": "uint256"
        },
        {
          "internalType": "uint256",
          "name": "_deliveryAmount",
          "type": "uint256"
        }
      ],
      "name": "createOrder",
      "outputs": [
        {
          "internalType": "uint256",
          "name": "",
          "type": "uint256"
        }
      ],
      "payable": true,
      "stateMutability": "payable",
      "type": "function"
    },
    {
      "constant": false,
      "inputs": [
        {
          "internalType": "uint256",
          "name": "_orderId",
          "type": "uint256"
        }
      ],
      "name": "confirmFoodPickup",
      "outputs": [],
      "payable": false,
      "stateMutability": "nonpayable",
      "type": "function"
    },
    {
      "constant": false,
      "inputs": [
        {
          "internalType": "uint256",
          "name": "_orderId",
          "type": "uint256"
        }
      ],
      "name": "confirmFoodDelivery",
      "outputs": [],
      "payable": false,
      "stateMutability": "nonpayable",
      "type": "function"
    },
    {
      "constant": true,
      "inputs": [
        {
          "internalType": "uint256",
          "name": "_orderId",
          "type": "uint256"
        }
      ],
      "name": "getOrder",
      "outputs": [
        {
          "internalType": "address",
          "name": "customer",
          "type": "address"
        },
        {
          "internalType": "address",
          "name": "restaurant",
          "type": "address"
        },
        {
          "internalType": "address",
          "name": "deliveryPerson",
          "type": "address"
        },
        {
          "internalType": "uint256",
          "name": "restaurantAmount",
          "type": "uint256"
        },
        {
          "internalType": "uint256",
          "name": "deliveryAmount",
          "type": "uint256"
        },
        {
          "internalType": "bool",
          "name": "foodPickedUp",
          "type": "bool"
        },
        {
          "internalType": "bool",
          "name": "foodDelivered",
          "type": "bool"
        }
      ],
      "payable": false,
      "stateMutability": "view",
      "type": "function"
    }
  ],
  "bytecode": "0x6080604052600060015534801561001557600080fd5b50610d78806100256000396000f3fe6080604052600436106100555760003560e01c8063178575931461005a5780632453ffa814610095578063a85c38ef146100c0578063b0e9b552146101c5578063d09ef24114610200578063fe87991814610305575b600080fd5b34801561006657600080fd5b506100936004803603602081101561007d57600080fd5b8101908080359060200190929190505050610391565b005b3480156100a157600080fd5b506100aa61059b565b6040518082815260200191505060405180910390f35b3480156100cc57600080fd5b506100f9600480360360208110156100e357600080fd5b81019080803590602001909291905050506105a1565b604051808873ffffffffffffffffffffffffffffffffffffffff1673ffffffffffffffffffffffffffffffffffffffff1681526020018773ffffffffffffffffffffffffffffffffffffffff1673ffffffffffffffffffffffffffffffffffffffff1681526020018673ffffffffffffffffffffffffffffffffffffffff1673ffffffffffffffffffffffffffffffffffffffff168152602001858152602001848152602001831515151581526020018215151515815260200197505050505050505060405180910390f35b3480156101d157600080fd5b506101fe600480360360208110156101e857600080fd5b810190808035906020019092919050505061065d565b005b34801561020c57600080fd5b506102396004803603602081101561022357600080fd5b81019080803590602001909291905050506108eb565b604051808873ffffffffffffffffffffffffffffffffffffffff1673ffffffffffffffffffffffffffffffffffffffff1681526020018773ffffffffffffffffffffffffffffffffffffffff1673ffffffffffffffffffffffffffffffffffffffff1681526020018673ffffffffffffffffffffffffffffffffffffffff1673ffffffffffffffffffffffffffffffffffffffff168152602001858152602001848152602001831515151581526020018215151515815260200197505050505050505060405180910390f35b61037b6004803603608081101561031b57600080fd5b81019080803573ffffffffffffffffffffffffffffffffffffffff169060200190929190803573ffffffffffffffffffffffffffffffffffffffff16906020019092919080359060200190929190803590602001909291905050506109c2565b6040518082815260200191505060405180910390f35b600080600083815260200190815260200160002090508060020160009054906101000a900473ffffffffffffffffffffffffffffffffffffffff1673ffffffffffffffffffffffffffffffffffffffff163373ffffffffffffffffffffffffffffffffffffffff161461044f576040517f08c379a0000000000000000000000000000000000000000000000000000000008152600401808060200182810382526027815260200180610d1d6027913960400191505060405180910390fd5b8060050160009054906101000a900460ff16156104d4576040517f08c379a00000000000000000000000000000000000000000000000000000000081526004018080602001828103825260168152602001807f466f6f6420616c7265616479207069636b65642075700000000000000000000081525060200191505060405180910390fd5b60018160050160006101000a81548160ff0219169083151502179055508060010160009054906101000a900473ffffffffffffffffffffffffffffffffffffffff1673ffffffffffffffffffffffffffffffffffffffff166108fc82600301549081150290604051600060405180830381858888f1935050505015801561055f573d6000803e3d6000fd5b507f1d057306930ac751c5d2efc0b30310763455cd62dbad18965ba792fbda780402826040518082815260200191505060405180910390a15050565b60015481565b60006020528060005260406000206000915090508060000160009054906101000a900473ffffffffffffffffffffffffffffffffffffffff16908060010160009054906101000a900473ffffffffffffffffffffffffffffffffffffffff16908060020160009054906101000a900473ffffffffffffffffffffffffffffffffffffffff16908060030154908060040154908060050160009054906101000a900460ff16908060050160019054906101000a900460ff16905087565b600080600083815260200190815260200160002090508060000160009054906101000a900473ffffffffffffffffffffffffffffffffffffffff1673ffffffffffffffffffffffffffffffffffffffff163373ffffffffffffffffffffffffffffffffffffffff161461071b576040517f08c379a0000000000000000000000000000000000000000000000000000000008152600401808060200182810382526022815260200180610cfb6022913960400191505060405180910390fd5b8060050160009054906101000a900460ff1661079f576040517f08c379a00000000000000000000000000000000000000000000000000000000081526004018080602001828103825260168152602001807f466f6f64206e6f74207069636b6564207570207965740000000000000000000081525060200191505060405180910390fd5b8060050160019054906101000a900460ff1615610824576040517f08c379a00000000000000000000000000000000000000000000000000000000081526004018080602001828103825260168152602001807f466f6f6420616c72656164792064656c6976657265640000000000000000000081525060200191505060405180910390fd5b60018160050160016101000a81548160ff0219169083151502179055508060020160009054906101000a900473ffffffffffffffffffffffffffffffffffffffff1673ffffffffffffffffffffffffffffffffffffffff166108fc82600401549081150290604051600060405180830381858888f193505050501580156108af573d6000803e3d6000fd5b507f8e4c9d54c111bc99c1e1f0775f2266cf6a8c856649725095041aa741702a7d67826040518082815260200191505060405180910390a15050565b6000806000806000806000806000808a815260200190815260200160002090508060000160009054906101000a900473ffffffffffffffffffffffffffffffffffffffff168160010160009054906101000a900473ffffffffffffffffffffffffffffffffffffffff168260020160009054906101000a900473ffffffffffffffffffffffffffffffffffffffff16836003015484600401548560050160009054906101000a900460ff168660050160019054906101000a900460ff16975097509750975097509750975050919395979092949650565b60008183013414610a3b576040517f08c379a00000000000000000000000000000000000000000000000000000000081526004018080602001828103825260188152602001807f496e636f7272656374207061796d656e7420616d6f756e74000000000000000081525060200191505060405180910390fd5b6001600081548092919060010191905055506040518060e001604052803373ffffffffffffffffffffffffffffffffffffffff1681526020018673ffffffffffffffffffffffffffffffffffffffff1681526020018573ffffffffffffffffffffffffffffffffffffffff16815260200184815260200183815260200160001515815260200160001515815250600080600154815260200190815260200160002060008201518160000160006101000a81548173ffffffffffffffffffffffffffffffffffffffff021916908373ffffffffffffffffffffffffffffffffffffffff16021790555060208201518160010160006101000a81548173ffffffffffffffffffffffffffffffffffffffff021916908373ffffffffffffffffffffffffffffffffffffffff16021790555060408201518160020160006101000a81548173ffffffffffffffffffffffffffffffffffffffff021916908373ffffffffffffffffffffffffffffffffffffffff160217905550606082015181600301556080820151816004015560a08201518160050160006101000a81548160ff02191690831515021790555060c08201518160050160016101000a81548160ff0219169083151502179055509050507fa4be1e061958d160de04db54668a64922c36d2765b16644ae91acf127708970e6001543387878787604051808781526020018673ffffffffffffffffffffffffffffffffffffffff1673ffffffffffffffffffffffffffffffffffffffff1681526020018573ffffffffffffffffffffffffffffffffffffffff1673ffffffffffffffffffffffffffffffffffffffff1681526020018473ffffffffffffffffffffffffffffffffffffffff1673ffffffffffffffffffffffffffffffffffffffff168152602001838152602001828152602001965050505050505060405180910390a1600154905094935050505056fe4f6e6c7920637573746f6d65722063616e20636f6e6669726d2064656c69766572794f6e6c792064656c697665727920706572736f6e2063616e20636f6e6669726d207069636b7570a265627a7a723158205cf029e06165f9af370297ba874bdbf4a88d3a0d6a009e67ce99e74f62973f0864736f6c63430005100032",
  "source": "// SPDX-License-Identifier: MIT\npragma solidity ^0.5.16;\n\ncontract DeliverySystem {\n    struct Order {\n        address customer;\n        address restaurant;\n        address deliveryPerson;\n        uint256 restaurantAmount;\n        uint256 deliveryAmount;\n        bool foodPickedUp;\n        bool foodDelivered;\n    }\n\n    mapping(uint256 => Order) public orders;\n    uint256 public orderCount=0;\n\n    event OrderCreated(uint256 orderId, address customer, address restaurant, address deliveryPerson, uint256 restaurantAmount, uint256 deliveryAmount);\n    event FoodPickedUp(uint256 orderId);\n    event FoodDelivered(uint256 orderId);\n\n    function createOrder(address _restaurant, address _deliveryPerson, uint256 _restaurantAmount, uint256 _deliveryAmount) public payable returns (uint256) {\n        require(msg.value == _restaurantAmount + _deliveryAmount, \"Incorrect payment amount\");\n\n        orderCount++;\n        orders[orderCount] = Order({\n            customer: msg.sender,\n            restaurant: _restaurant,\n            deliveryPerson: _deliveryPerson,\n            restaurantAmount: _restaurantAmount,\n            deliveryAmount: _deliveryAmount,\n            foodPickedUp: false,\n            foodDelivered: false\n        });\n\n        emit OrderCreated(orderCount, msg.sender, _restaurant, _deliveryPerson, _restaurantAmount, _deliveryAmount);\n        return orderCount;\n    }\n\n    function confirmFoodPickup(uint256 _orderId) public {\n        Order storage order = orders[_orderId];\n        require(msg.sender == order.deliveryPerson, \"Only delivery person can confirm pickup\");\n        require(!order.foodPickedUp, \"Food already picked up\");\n\n        order.foodPickedUp = true;\n        address(uint160(order.restaurant)).transfer(order.restaurantAmount);\n\n        emit FoodPickedUp(_orderId);\n    }\n\n    function confirmFoodDelivery(uint256 _orderId) public {\n        Order storage order = orders[_orderId];\n        require(msg.sender == order.customer, \"Only customer can confirm delivery\");\n        require(order.foodPickedUp, \"Food not picked up yet\");\n        require(!order.foodDelivered, \"Food already delivered\");\n\n        order.foodDelivered = true;\n        address(uint160(order.deliveryPerson)).transfer(order.deliveryAmount);\n\n        emit FoodDelivered(_orderId);\n    }\n\n    function getOrder(uint256 _orderId) public view returns (\n        address customer,\n        address restaurant,\n        address deliveryPerson,\n        uint256 restaurantAmount,\n        uint256 deliveryAmount,\n        bool foodPickedUp,\n        bool foodDelivered\n    ) {\n        Order storage order = orders[_orderId];\n        return (\n            order.customer,\n            order.restaurant,\n            order.deliveryPerson,\n            order.restaurantAmount,\n            order.deliveryAmount,\n            order.foodPickedUp,\n            order.foodDelivered\n        );\n    }\n}\n\n",
  "sourcePath": "F:\\program file backup\\Desktop\\新建文件夹\\blockchain_demo\\blockchain\\contracts\\DeliverySystem.sol",
  "compiler": {
    "name": "solc",
    "version": "0.5.16+commit.9c3226ce.Emscripten.clang"
  },
  "schemaVersion": "3.4.16",
  "updatedAt": "2024-11-27T08:31:26.825Z",
  "devdoc": {
    "methods": {}
  },
  "userdoc": {
    "methods": {}
  }
}